:020000040800F2
:10000000503D0020D90E0008D50E0008D50E00087E
:10001000D50E0008D50E0008D50E0008000000001F
:10002000000000000000000000000000D50E0008E5
:10003000D50E000800000000D50E00088D620008F3
:10004000D50E0008D50E0008D50E0008D50E000804
:10005000D50E0008D50E0008D50E0008D50E0008F4
:10006000D50E0008D50E0008D50E0008D50E0008E4
:10007000D50E0008D50E0008D50E0008D50E0008D4
:10008000D50E0008D50E0008D50E0008D50E0008C4
:10009000D50E0008D50E0008D50E0008D50E0008B4
:1000A000D50E0008ED640008D50E0008D50E000836
:1000B0005D6500088D650008B1650008A56600084B
:1000C000A1670008D50E0008D50E0008D50E00085F
:1000D000D50E000851630008AD63000811640008E4
:1000E00005660008D50E0008D50E000800000000C7
:1000F0000000000000000000000000000000000000
:1001000000000000000000005FF808F108B50120C1
:1001100006F084FB022004F0C7F9002006F07EFB05
:10012000BDE80840062004F0BFB900001C4A10B525
:100130001178814232D0107050701A4CD0B100202A
:1001400000F0E2FB23680120597841F080015970EA
:1001500006F0A4FB012000F0D7FB2168002381F802
:100160003F3081F8403040203F310222BDE810404E
:1001700006F060BB00F0C8FB23680120597801F04D
:100180007F01597006F08AFB012000F0BDFBBDE83D
:100190001040012004496F2206F08CBB10BD00BF47
:1001A000C0050020801100200D11002008B5094A6B
:1001B000094B1360094A136006F02EFBFFF7A6FFF8
:1001C000074B01205870FFF7B1FFBDE8084000F071
:1001D000B1BB00BF7C1100200C1100208011002059
:1001E000C0050020024B5B7803B9FEE700F0E2BBDC
:1001F000C0050020034B01205B780BB900F0BEB9AD
:1002000000F00CBCC0050020034B5B780BB900F07C
:1002100077B900F0DBBB00BFC0050020034B5B7863
:100220000BB900F07BB900F0DDBB00BFC0050020BA
:10023000034B5B780BB900F0A7B900F0F5BB00BF2A
:10024000C0050020224A038890429BB212D002F5DA
:10025000006290420ED0B0F1804F0BD0A2F59832E0
:10026000904207D002F58062904203D002F580628E
:10027000904203D14A8823F070031343154A9042F9
:1002800008D002F5806290421FBF23F44073CA88F1
:100290009BB2134303808B8883850B8803850C4BAB
:1002A00098420FD003F5006398420BD003F54063EA
:1002B000984207D003F58063984203D003F580632A
:1002C000984201D10B7A038601238382704700BFD5
:1002D000002C0140001000404FF6FF738380002384
:1002E0000380C380438003727047038819B19BB2B7
:1002F00043F0010303E023F001031B041B0C038004
:10030000704783899BB20AB1194301E023EA0101D6
:1003100081817047038A828911EA030092B203D077
:10032000114214BF012000207047C94389B20182E5
:1003300070470000384B82B01A6842F001021A6020
:100340005968364A0A405A601A6822F0847222F4C8
:1003500080321A601A6822F480221A605A6822F4E5
:10036000FE025A604FF41F029A600022009201922E
:100370001A6842F480321A601A6802F4003201925C
:10038000009A01320092019A1AB9009AB2F5A06F50
:10039000F2D11A6812F4003218BF01220192019AB8
:1003A000012A05D01E4B4FF000629A6002B07047E0
:1003B0001C4A116841F010011160116821F003011D
:1003C0001160116841F0020111605A685A605A6860
:1003D0005A605A6842F480625A605A6822F47C1269
:1003E0005A605A6842F4E8125A601A6842F0807201
:1003F0001A601968084A8901FBD5516821F0030188
:100400005160516841F0020151605A6802F00C02DB
:10041000082AFAD1C6E700BF001002400000FFF82A
:1004200000ED00E00020024038B5104B10491A687A
:10043000054652781C4602F0070290420A7013D01B
:10044000C31E584258414B78834202D0487006F090
:10045000A1FA23680120597821F007012943597036
:10046000BDE8384006F01ABA38BD00BF7C11002044
:10047000000000200000000010B50D4C1B2021687A
:100480000222014406F016FA2368D87E1B7F43EA55
:10049000002009F00DFE04A3D3E9002309F06EFE4D
:1004A0000AF006F910BD00BF0000000080844E4035
:1004B0007C11002010B5054C0C202168014406F089
:1004C0003BFA2368187B400910BD00BF7C11002057
:1004D00010B5094C11202168014406F02DFA23685B
:1004E000587C09F0D5FD0022044B09F047FE01F1CC
:1004F0000043194610BD00BF7C1100200000E03F02
:100500000B4605498A8A16311A80002221F8022CEE
:100510001A880AF01BB900BFC8050020034610B5B1
:10052000054C0A46A4F8161104F1160019460AF003
:100530000DF90723237010BDC805002010B50E4B20
:100540001C6894F8273094F8301003F0070294F8F0
:10055000323011F0060F03F10103134414BF0120E0
:10056000002003EBD11311F0100F14BF022400245C
:100570001844204480B210BD7C110020014B18703B
:10058000704700BFC8050020F8B5B74C2378013B81
:100590000A2B00F2AB81DFE813F00B0062008D0044
:1005A000FC0003011301230140017701A101A50112
:1005B000AE4B402019681D4691F8302012F0100F04
:1005C00014BF4C230C2381F84030E12381F84130E3
:1005D0000222014406F02EF90520FFF725FF4FF413
:1005E00080720021A2480AF027F9FFF7A7FF09F05F
:1005F0004FFD00229F4B09F0C1FD9F4B06469868B6
:100600000F4609F045FD02460B463046394609F0D3
:10061000DFFE0022994B09F0B1FD07F0B3FE002286
:10062000974B09F0F9FB0AF06BF82B6880B200EBEE
:100630005000A021C4F81801C4F81C0183F835103B
:10064000352006F02BF9002384F8203184F821317D
:1006500084F8223184F82331A382022301E106F0D9
:1006600093F9012805D194F8203113B97E4B83F812
:10067000200106F07DF9012840F0388194F82031FE
:10068000794E002B00F0328196F82131002B40F09A
:100690002D8186F82101FFF71BFFC6E90201FFF754
:1006A000EBFE3061FFF706FF734B83F82000032356
:1006B00033701BE1A38A6C4DB3F5807F02D906230A
:1006C0002B7013E106F04EF90128014633D1AB8AB5
:1006D000664E7BB995F8233163B9336893F93020BE
:1006E000002A04DA05F1140006F02FF902E093F86D
:1006F0003230AB82316894F82321A38A91F8351007
:10070000594D01F03F019B1A05F116008B42104430
:100710000BDD06F01AF9554B1B6893F8353003F0E2
:100720003F0295F82331134403E0D9B206F00DF9E6
:10073000AB8A85F8233106F00FF90128014626D14E
:100740004948A38A00F11605A3B990F823218AB974
:10075000464B1B6893F93020002A03DA143006F068
:10076000F4F802E093F83230838294F82301217D7B
:10077000091A02E094F82301191A2844C9B206F0B4
:10078000E4F8A38A84F82331012384F82231052375
:1007900067E0002384F82331012323700220F8BD91
:1007A000002384F82331A382304B0D201B68597B32
:1007B00041F0200106F072F8012323700320F8BDF8
:1007C000002384F82331A382284B0D201B68597B1A
:1007D00041F0200106F062F8012323700620F8BDE5
:1007E000224E202331684020012581F84130022229
:1007F00081F84050014406F01DF83368982183F8D1
:100800003510352006F04AF80320FFF70DFE0823C7
:100810002370002384F8243168E006F0AFF8012843
:10082000014663D1114B1B6893F93030002B02DA7B
:10083000144806F084F8B4F816310F4D5A1E3F2ABA
:1008400088BF202385F82130094895F8211006F04B
:1008500076F894F8243195F82120134484F8243153
:100860000923237042E000BFC80500207C1100204E
:10087000DE050020000020400000002000408F40E6
:100880000000F03FDE06002006F06CF8E0B9184EDC
:1008900094F82421B4F81631164D96F821109B1ABD
:1008A00005F116008B42104407DD06F048F896F873
:1008B000212095F82431134404E0D9B206F03FF822
:1008C000B5F8163185F8243106F046F8012803D131
:1008D0000A232370FFF7A8FD0B23C2E70023237030
:1008E0000420F8BD002323700520F8BD0120F8BDC9
:1008F00000000020C8050020024B42201968413149
:1009000006F01AB88011002010B5084B084A1B6881
:10091000597801F0070421F0070101431470597060
:100920000120BDE8104005F0B9BF00BF80110020D4
:100930002400002038B51B4B1B4C00251D70FFF711
:10094000DBFF214601206F2205F0B4FF174B214643
:100950001B68174C20221A7301206F2205F06AFFD2
:10096000606806F049FEA07A06F0A2FFE07A06F081
:10097000C5FE207B06F0DCFE607A06F0A5FE607BFB
:1009800006F008FF40F2FF3006F044FF207F06F03B
:1009900019FF284606F05AFFBDE838400120FFF74E
:1009A000B3BF00BFF00600200D1100208011002011
:1009B00024000020014B93F901007047F00600204D
:1009C000014BD3E902017047F0060020044B1A8A5C
:1009D0000A800021198203F1120109F0B7BE00BF9D
:1009E000F00600200A4A10B5D27B0346094C12B922
:1009F000A4F8121102E0FF22A4F8122119460648B9
:100A0000B4F8122109F0A2FE0523237010BD00BF27
:100A100024000020F006002002070020014B18707F
:100A2000704700BFF00600202DE9F347A84C23785B
:100A30000A2B00F24382DFE813F00B000D00650083
:100A400085007D018101D801080241020F022902BF
:100A5000002034E29F4D0120FFF756FF2B689D21B7
:100A60009D4E5974112005F019FFF37B9BB1296845
:100A7000337C1C2081F82430014405F05DFF2B6895
:100A80001B7F03F03F02954B03EB8203D3F8A000DA
:100A900006F0B2FD03E02B68FF2283F824202B68C8
:100AA000242093F8241005F0F9FE2968002302227F
:100AB00081F8403081F83F2040203F3105F0BAFEF8
:100AC0001220FF2105F0EAFEB37B0BB1062007E000
:100AD000804B0D201B68D97B597305F0DFFE052084
:100AE000FFF712FF00214FF480727D4809F0A4FE49
:100AF000B369C4F8143103F03FFD0223C4F81801B0
:100B00002370DBE105F028FF0128054640F0D6817F
:100B1000704E12203168014405F00EFF33689B7C53
:100B20009E0644BF6F4B1D7003F026FDC4F81801EC
:100B30001220402105F0B2FE05F00EFF0128F7D08B
:100B40000323DDE7674A634E1378012B15D100219B
:100B50001170654A316813701220014405F0ECFEF3
:100B6000336812209B7C20219D0604D505F096FE5B
:100B7000584B1968F0E705F091FE19200DF10701B7
:100B800005F0DAFE9DF80730534D1A0643BF5B426D
:100B9000C3F385035B429B0863706A68534B4C4FF9
:100BA0009A4294F901A027D8BAF1000F11DA6A7AB3
:100BB0004F4B03EBC203D3E9000100224D4B09F078
:100BC000DDFA41A3D3E9002309F024F900224A4BBE
:100BD00026E031681A20014405F0AEFE3F4B95F83F
:100BE000098003EBC8083368987E09F051FA024681
:100BF0000B46D8E9000131E0BAF1000F1CDA6A7A3D
:100C00003B4B03EBC203D3E900010022394B09F04F
:100C1000B5FA2DA3D3E9002309F0FCF8374B0022E5
:100C200009F0FAF880465046894609F041FA024632
:100C30000B464046494611E031681A20014405F050
:100C40007BFE264B95F8098003EBC8083368987E35
:100C500009F01EFA02460B46D8E9140109F0DCF847
:100C6000AB7BC7E90201DFF870801A4FB3B133687C
:100C70000D20D97B597305F011FE98F80D301BB18A
:100C80003B6893F8221006E039681320014405F010
:100C900053FE3B68D97C2182114841E03168102025
:100CA000014405F049FE98F80D304BB33B680D2028
:100CB000197C93F822205973228205F0EFFD3B68DE
:100CC000074893F822102BE00000000000C06540A8
:100CD000F00600208011002024000020D8A8000881
:100CE0000207002084110020D8270020FF8E423305
:100CF00048AA0008000024400000104000001840EE
:100D000039681320014405F017FE3B680D20197C5B
:100D1000DA7C5973228205F0C1FD3B686948D97CB1
:100D200005F013FEAB7B022013B101232370C6E054
:100D30002070C4E0012323700320C0E00120FFF7EE
:100D4000E3FD614B614DDA7BAAB129681B7CF5227A
:100D50001C204A7481F82430014405F0EDFD2B6815
:100D60001B7F03F03F025A4B03EB8203D3F8A00032
:100D700006F042FC04E02B68F721597483F8242024
:100D80002B68242093F8241005F088FD2B6811208F
:100D9000597C05F083FD94F812112B68222083F80A
:100DA000221005F07BFD2B68002199730E2005F0C1
:100DB00075FD2B680D20997B597305F06FFD2B682D
:100DC000404893F8221005F0BAFD296841234020DD
:100DD00081F83F3081F8400002223F3105F02AFDC2
:100DE0000320FFF791FD06238AE605F0B5FD0128F3
:100DF00005D11220082105F051FD0723237005F0CD
:100E0000ABFD012804D11220082105F047FDF6E7CB
:100E100005F0AEFD012851D12B4BDB7B83B12B4C70
:100E20001C202168014405F087FD23681B7F03F027
:100E30003F02274B03EB8203D3F8A00006F0DCFB54
:100E40001220022105F02AFD38E00120FFF75CFDA9
:100E500000232370042032E01C4D0120FFF754FDD5
:100E60002B68FA215974112005F018FD2968002318
:100E700081F83F3081F8403040203F31022205F0B8
:100E8000D9FC0720FFF740FD0A2339E605F076FD7F
:100E9000012813D11220042105F000FD05F074FD96
:100EA0000128054606D11220294605F0F7FC2570D9
:100EB000082004E000232370072000E0012002B096
:100EC000BDE8F087020700202400002080110020E8
:100ED000D8A80008FEE7000008B50C4A0C4B0D49E5
:100EE0008B4204D252F8041F43F8041BF7E70A4868
:100EF0000A494FF000028842B8BF40F8042BFADBE1
:100F0000FFF718FABDE8084004F0D2BA1CDA00086E
:100F100000000020BC050020C00500205035002046
:100F2000CA78F0B5D40648BF8C780D8802F00F035C
:100F300048BF234315F0FF0F1DD001680024012690
:100F4000A64006EA0507B74211D14FEA840E0F26E4
:100F500006FA0EF621EA0601282A03FA0EF641EAFD
:100F6000060101D1476102E0482A08BF0761013448
:100F7000082CE4D10160FF2D1FD94168002404F141
:100F800008070126BE4006EA0507B74211D14FEA1D
:100F9000840E0F2606FA0EF621EA0601282A03FA25
:100FA0000EF641EA060101D1476102E0482A08BF76
:100FB00007610134082CE2D14160F0BD8368194219
:100FC00014BF0120002070470161704741617047E4
:100FD0000AB1016170474161704701F0030301F0FC
:100FE000FC0101F1804101F5803110B59B008C6856
:100FF0000F229A4024EA02028A608A6898400243DB
:101000008A6010BD0149012206F03CBEB4040020F4
:101010000149012206F036BEAC040020F8B54E4866
:1010200005F0BAFC002006F031FD002001464B4CD3
:1010300006F020FE002323602168052941D8484E90
:1010400001EB81013546490089B2002006F012FE0D
:10105000002333602B68424F022B0FD82168414A8E
:1010600002EB0112134493F83F0038B13E490122CC
:1010700006F008FE3B6801333B60EBE72168122075
:1010800001EB8101490089B206F0F4FD00233360D1
:101090002B68334E022B0ED82168324A02EB011224
:1010A000134493F84B0030B12F49012206F0EAFDBA
:1010B00033680133EBE72D4805F0E6FD2368013383
:1010C000B9E7264B00221A602168052942D8244E30
:1010D00001EB81013546490089B2372006F0CAFD8F
:1010E000002333602B681E4F022B0FD821681D4A46
:1010F00002EB0112134493F83F0438B11A4901225C
:1011000006F0C0FD3B6801333B60EBE721684920F6
:1011100001EB8101490089B206F0ACFD0023336088
:101120002B680F4E022B0ED821680E4A02EB0112DB
:10113000134493F84B0430B10B49012206F0A2FD91
:1011400033680133EBE7094805F09EFD236801335E
:101150002360B9E7F8BD00BF05100008B41E0020E9
:1011600094120020BD150020B4040020A8AF000890
:101170002DE9F3470020AD4DAD4C06F087FCAD489E
:1011800005F00AFCAC4F2878D4F800C0AB49002227
:1011900082423DD24B78A3F130060B78303B03EB13
:1011A000830306EB4303A64E93550B7BA3B191F843
:1011B0000DE0A44EBEF1000F10D091F80EC0BCF1AE
:1011C000000F10D1303BAEF1300E03EB83034FF034
:1011D000020C0EEB430304E09C4616E04FF0010CBA
:1011E000303BB35411E0303B03EB8303ACF1300CE4
:1011F00003EB8303AEF1300E0CEB83030EEB8E0E8C
:1012000003EB4E03B3544FF0030C01321031BFE730
:1012100000231A468C4EC4F800C0824205D2894988
:10122000515C01320B449BB2F7E795F801E0D4F82A
:10123000008086493380002272453DD24B78A3F16D
:1012400030000B78303B03EB830300EB4303804813
:1012500013540B7BA3B191F80DC07E48BCF1000F75
:1012600010D091F80E80B8F1000F10D1303BACF1E6
:10127000300C03EB83034FF002080CEB430304E054
:10128000984616E04FF00108303B835411E0303BA4
:1012900003EB8303A8F1300803EB8303ACF1300CBC
:1012A00008EB83030CEB8C0C03EB4C0383544FF0E3
:1012B000030801321031BFE700231A46DFF8B89166
:1012C000C4F80080724505D26249515C01320B447A
:1012D0009BB2F7E700200146A9F800303A6006F01B
:1012E000C9FC2A78A9785C4805F0CEFC4220002190
:1012F00006F0C0FC6A785948E97805F0C5FC584BFF
:1013000000229A461A803A602B783A689A424FF047
:1013100000032DD2236022683B680B2A25D851494F
:101320009800895C464AD25C9142464A10D1D15C11
:10133000BAF800208BB21A44AAF80020C1F13F018C
:101340000122009280B289B2022206F0D5FD09E0A6
:10135000D35C0122C3F13F01009280B289B2022224
:1013600006F08DFD23680133D4E701333B60CBE702
:101370003D4A3149904613800B606B783A689A4237
:1013800030D20023236022683B680B2A27D83749D4
:101390009800895C2E4AD25C91422E4A11D1D15CD0
:1013A000B8F800208BB21A44A8F80020423001227D
:1013B000C1F13F01009280B289B2022206F09CFD89
:1013C0000AE0D35C42300122C3F13F01009280B2B7
:1013D00089B2022206F053FD23680133D2E70133BC
:1013E0003B60CAE700200A2106F044FC3288BAF8C4
:1013F00000101F4805F048FC42200A2106F03AFC84
:10140000B8F80010B9F80020194805F03DFC652037
:10141000142106F02FFCBAF80010B8F80030154877
:10142000194402B0BDE8F04705F02EBC0C080020BE
:101430009412002005100008B41E0020FC150020A6
:10144000011F002036140020F62C0020FC1900207B
:10145000CE2C00209515002098AA0008A2AA00080A
:10146000EA27002004280020AE1E0020561F00207E
:10147000ACAA0008C8AA0008EC27002010B500207C
:1014800006F004FB264805F087FA0020014606F026
:10149000F1FB244B2448197805F0F6FB00200A21C3
:1014A00006F0E8FB214B2248197805F0EDFB0020FF
:1014B000142106F0DFFB1F4B64241A881E48B2FB80
:1014C000F4F104FB112289B292B205F0DDFB002099
:1014D0001E2106F0CFFB194B19481A88B2FBF4F114
:1014E00004FB112289B292B205F0CEFB0020282124
:1014F00006F0C0FB134B14481A88B2FBF4F104FB4E
:10150000112289B292B205F0BFFB0020322106F011
:10151000B1FBBDE810400D4B0D48198805F0B4BB78
:101520000510000850270020B4AA000880140020ED
:10153000C2AA0008DE270020CBAA0008F82C002051
:10154000D7AA000868140020E3AA00087414002039
:10155000EFAA000870B5002006F098FA00200146B6
:1015600006F088FB444805F017FA444805F08CFB68
:10157000434805F011FA434C00200A2106F07AFB9B
:10158000002323602368404D082B0CD82A78023AA8
:10159000012A97BF3D4A2D209B18987AFFF738FD06
:1015A00023680133EDE72B78384E023B012B04D83A
:1015B000317D374805F068FB02E0364805F064FBF2
:1015C00000201B2106F056FB737D302B1AD101231E
:1015D00023602368092B0BD82A78023A012A9ABF84
:1015E0009B19587D2D20FFF713FD23680133EFE78A
:1015F0002B78023B012B16D896F82010244805F0D2
:1016000043FB13E0002323602368092BF0D82A78DA
:10161000023A012A9ABF9B19587D2D20FFF7F8FC4A
:1016200023680133EFE71B4805F02EFB124805F055
:10163000B3F93221002006F01DFB174805F024FB0A
:101640001E202C2106F016FB002323602368042BA8
:101650000CD82A78023A012A9ABF9B1993F82500E0
:101660002D20FFF7D5FC23680133EEE70B48BDE8DA
:10167000704005F009BB00BF05100008FAAA000879
:1016800011100008B41E002080140020BD15002099
:101690000AAB00080FAB000812AB00080CAC000846
:1016A00010B5002006F0F2F91D4805F075F900208C
:1016B000014606F0DFFA1B4B1B48197805F0E4FAE7
:1016C00000200A2106F0D6FA184B19481988194C3F
:1016D00089B205F0D9FA0020142106F0CBFA164B96
:1016E0001648198805F0D0FA00201E2106F0C2FA2B
:1016F0002179134805F0C8FA0020282106F0BAFA2B
:10170000104B1148197805F0BFFA0020322106F07D
:10171000B1FA61790D48BDE8104005F0B5BA00BFD7
:1017200005100008C01E002018AB0008C42C0020C3
:1017300023AB00080C080020201300202EAB00086B
:1017400039AB0008EF27002044AB00084FAB00087E
:1017500008B5002006F09AF9244805F01DF900208C
:10176000014606F087FA224805F08EFA002014217F
:1017700006F080FAFFF724F908F09AFF01461D48A9
:1017800005F082FA70200A2106F074FA1A4B1B88C1
:101790009BB213B1194805F077FA1E21002006F01C
:1017A00069FAFEF71FFD0146154805F06DFA0020A5
:1017B0001E2106F05FFA0020282106F05BFA114B8B
:1017C000D3E9000108F074FF01460F4805F05CFA08
:1017D0000020322106F04EFA0C4B0D481A680D4BD2
:1017E0001968BDE80840891A05F04EBA05100008CE
:1017F0005AAB00086DAB0008081300207AAB000854
:101800007DAB0008E834002088AB000800350020DC
:1018100096AB0008F027002038B5002006F036F916
:10182000204805F0B9F8002001461F4C06F022FAC6
:101830000020014606F01EFA1C4D628B616A1C48AE
:1018400005F022FA00200A2106F014FAE26A216A61
:10185000284605F019FA0020142106F00BFA628ED2
:10186000E16B144805F010FA00201E2106F002FA80
:10187000626CA16B284605F007FA0020282106F0CB
:10188000F9F9B4F84A20616D0B4805F0FDF9002024
:10189000322106F0EFF92846216DE26DBDE83840AF
:1018A00005F0F2B905100008A4110020B1AB000842
:1018B000A7AB0008BBAB0008C5AB0008F8B500201B
:1018C00006F0E4F8324805F067F80020014606F01B
:1018D000D1F9304D304805F0D7F901232B602B6842
:1018E0002C4C032B52D8013303EB8303590089B2EC
:1018F000002006F0BFF92168284805F0C5F92168E5
:101900001020013101EB8101490089B206F0B2F9E2
:10191000234E23680C2707FB0363204893F9091023
:1019200005F0B2F921682220013101EB8101490063
:1019300089B206F09FF92368184807FB03635968CA
:1019400005F0A2F921684A20013101EB810149002B
:1019500089B206F08FF9236810487B43F15E05F0E9
:1019600093F921686A20013101EB8101490089B2B4
:1019700006F080F92368094807FB036696F908100A
:1019800005F082F9236801332360A8E7F8BD00BFA2
:1019900005100008B41E0020CFAB0008C8AA00083C
:1019A000342C002038B5002006F070F82E4804F0E2
:1019B000F3FF0020014606F05DF92C4D2C4805F0A0
:1019C00063F901232B602B68284C032B4AD8013381
:1019D00003EB8303590089B2002006F04BF921681C
:1019E000244805F051F921680E20013101EB8101F5
:1019F000490089B206F03EF922680C2353431E4A7F
:101A00001C48D15E05F040F921683120013101EB1D
:101A10008101490089B206F02DF92268174B15485B
:101A200033F8121005F030F921685520013101EB2F
:101A30008101490089B206F01DF9114B226833F883
:101A400012204FF6FF739A4209D06423B2FBF3F1E0
:101A500003FB11220B4889B292B205F015F92B68ED
:101A60000133AFE738BD00BF05100008B41E0020E9
:101A7000E2AB0008C8AA0008342C00202C1F00206C
:101A8000101E0020B1AF000810B5002005F0FEFFC9
:101A9000274804F081FF0020014606F0EBF82548B6
:101AA00005F0F2F8244804F077FF00200A2106F040
:101AB000E1F8224B0022D3E90001214B08F05EFB44
:101AC00008F01EFE0A24B0FBF4F102461D4804FB98
:101AD000112205F0D9F800201B2106F0CBF81A4B93
:101AE0000022D3E90001164B08F048FB08F008FE7D
:101AF000B0FBF4F10246154804FB112205F0C4F8CE
:101B000000202C2106F0B6F8114B0022D3E9000189
:101B10000B4B08F033FB08F0F3FDB0FBF4F1024689
:101B20000C4804FB1122BDE8104005F0ADB800BF21
:101B300005100008F4AB000811100008D83400208C
:101B40000000244003AC0008981100200FAC0008EE
:101B5000F83400201BAC000837B5002005F096FFD4
:101B60002D4804F019FF0020014606F083F82B4CA5
:101B70002B4805F089F8012323602168274D0529AA
:101B800047D801EB8101490089B2002006F072F8C4
:101B90002968244805F078F829680C234B43224D26
:101BA000EA5A002A32D013B213F18C0F17DB363306
:101BB0004FEA810319444FEA4101ACBF01230123DD
:101BC00001F10201B6BF8C320093009389B2A7BF26
:101BD00014205522142092B2052306F08DF92168B5
:101BE0000C234B43EB5E63334FEA810319444FEA06
:101BF000410189B2B4BF63206A2006F03BF8226835
:101C00000C2353430948E95E05F03EF8236801338D
:101C1000B2E703B030BD00BF05100008B41E0020BD
:101C200027AC00083AAC0008342C0020C8AA0008F1
:101C300010B5002005F02AFF274804F0ADFE002073
:101C4000014606F017F8254805F01EF8244804F070
:101C5000A3FE00200A2106F00DF8224B0022D3E952
:101C60000001214B08F08AFA08F04AFD0A24B0FB73
:101C7000F4F102461D4804FB112205F005F800208E
:101C80001B2105F0F7FF1A4B0022D3E90001164B88
:101C900008F074FA08F034FDB0FBF4F10246154880
:101CA00004FB112204F0F0FF00202C2105F0E2FFDC
:101CB000114B0022D3E900010B4B08F05FFA08F04A
:101CC0001FFDB0FBF4F102460C4804FB1122BDE8F5
:101CD000104004F0D9BF00BF05100008F4AB0008A5
:101CE00011100008D83400200000244003AC000884
:101CF000981100200FAC0008F83400201BAC00083D
:101D00002DE9F3410020A44DA44C05F0BFFEA448EA
:101D100004F042FEA34E2F78D4F800C0A24900225E
:101D2000BA423DD24B78A3F130000B78303B03EB45
:101D3000830300EB43039D4813540B7BA3B191F83D
:101D40000DE09B48BEF1000F10D091F80EC0BCF121
:101D5000000F10D1303BAEF1300E03EB83034FF098
:101D6000020C0EEB430304E09C4616E04FF0010C1E
:101D7000303B835411E0303B03EB8303ACF1300C78
:101D800003EB8303AEF1300E0CEB83030EEB8E0EF0
:101D900003EB4E0383544FF0030C01321031BFE7C5
:101DA00000231A46C4F800C0BA4205D28049515CEB
:101DB00001320B449BB2F7E77E4A6F78D4F800C03B
:101DC0007D4913800022BA423DD24B78A3F1300006
:101DD0000B78303B03EB830300EB4303774813544A
:101DE0000B7BA3B191F80DE07548BEF1000F10D048
:101DF00091F80EC0BCF1000F10D1303BAEF1300EA7
:101E000003EB83034FF0020C0EEB430304E09C460C
:101E100016E04FF0010C303B835411E0303B03EBF4
:101E20008303ACF1300C03EB8303AEF1300E0CEB0B
:101E300083030EEB8E0E03EB4E0383544FF0030C23
:101E400001321031BFE700231A46C4F800C0BA427D
:101E500005D25B49515C01320B449BB2F7E700208D
:101E60003260584A0146138005F004FF2A78A978A9
:101E7000554804F009FF4220002105F0FBFE6A7876
:101E80005248E97804F000FF514B002298461A802E
:101E900032602B7832689A424FF000032DD22360D3
:101EA000226833680B2A25D84A499800895C3F4A42
:101EB000D25C91423E4A10D1D15CB8F800208BB27E
:101EC0001A44A8F80020C1F13F010122009280B21B
:101ED00089B2022206F010F809E0D35C0122C3F1B6
:101EE0003F01009280B289B2022205F0C8FF236848
:101EF0000133D4E701333360CBE7374F294A3B80C6
:101F000013606B7832689A422ED2002323602268D5
:101F100033680B2A25D831499800895C274AD25C5E
:101F20009142274A0FD1D15C3A888BB21A443A8049
:101F300042300122C1F13F01009280B289B20222F7
:101F400005F0DAFF0AE0D35C42300122C3F13F0121
:101F5000009280B289B2022205F091FF236801331A
:101F6000D4E701333360CCE700200A2105F082FE7C
:101F70003B88B8F800101A48194404F085FE422046
:101F80000A2105F077FE174B1748198802B0BDE803
:101F9000F04104F079BE00BF0C080020941200202C
:101FA00005100008B41E0020FC150020011F0020B1
:101FB00036140020F62C0020FC190020CE2C002026
:101FC00095150020EC27002098AA0008A2AA000876
:101FD000EA27002004280020AE1E0020561F002003
:101FE0003FAC00087414002047AC0008724AF0B5FA
:101FF0001146002012F8015B83B2242D04460ED155
:102000001578472D0BD15578502D08D19578472D4F
:1020100005D1D578532D02D11579412D05D0013048
:10202000B0F56B7FE6D140F2AB330A19D079634A41
:10203000412801D1012003E04D280CBF00200220DF
:102040000C441070607A5E4A312803D10120107070
:10205000002208E0322801D10220F8E733280CBF23
:1020600003200020F3E7574D0026565501320C2A75
:10207000F9D155480A3382789BB20127B3F57A7FAC
:1020800028D2CA5C2C2A09D14B4A1A445478302CE5
:1020900004D192782C2A01D1013310E001EB030E18
:1020A0009EF802200233A2F130049EF80120303A5B
:1020B00002EB820204EB4202AA550136F6B2013766
:1020C000FFB20D2F9BB201D1867004E001339BB2A9
:1020D0003246D3E7827001339BB2CA5C3B4C2C2A58
:1020E0000BD1354A1A445078302806D192782C2AE0
:1020F00003D100222280022213E0CD182A79A2F116
:1021000030006A78303A02EB820202EB820200EB86
:102110008202E878303800EB800002EB4002228037
:1021200005229D18485D2A4E2C280BD122482844B0
:102130004478302C06D180782C2803D100203080C0
:10214000023213E00D4428790532A0F1300468789A
:10215000303800EB800000EB800004EB8000EC786E
:10216000303C04EB840400EB440030801344CA5C30
:1021700018482C2A0AD1104A1A445478302C05D118
:1021800092782A2A02D10023038012E00B441A79A4
:10219000A2F130015A78DB78303A02EB820202EB8E
:1021A0008202303B01EB820203EB830302EB43022A
:1021B00002800120F0BD00BF14280020502700201D
:1021C00080140020042800200C080020DE270020B6
:1021D000F82C0020681400202C4AF0B51546002188
:1021E00012F8010B8BB224280ED1107847280BD19E
:1021F00050784C2808D19078472805D1D0785328BA
:1022000002D11079412805D00131B1F56B7FE7D1BA
:1022100040F2AB3300211E4E00228A5501310C29B9
:10222000F9D11C480A33C1789BB20124B3F57A7FF7
:1022300028D2E95C2C2909D1144919444F78302F50
:1022400004D189782C2901D1013310E005EB030E6C
:102250009EF802100233A1F130079EF801103039C8
:1022600001EB810107EB4101B1540132D2B20134DB
:10227000E4B20D2C9BB201D1C27004E001339BB2D9
:102280001146D3E7C1700120F0BD00BF1428002023
:10229000561F00200C080020F8B5374B002213F819
:1022A000011F94B2242908D1D978472905D1197979
:1022B000472902D15979412903D00132082AEED1A8
:1022C00057E0052C55D82D4D00260021284640F614
:1022D0003F0208F0B1FA37463046334631460634FD
:1022E000A4B2274A12F804E0BEF12C0F03D1013149
:1022F000C9B2002331E08A1E082A2ED8DFE802F096
:10230000050C10171B1F2D263200082B25D85A1C30
:102310002B4483F80AE01FE0002B08BF76461CE040
:10232000092B1AD85A1C2B4483F815E014E0002B13
:1023300008BF704611E0002B08BF77460DE0012B67
:102340000BD85A1C2B4483F822E005E0062B04D856
:102350005A1C2B4483F825E0D3B20134A4B2B4F55F
:102360007A7FBED185F8200085F821702E75012076
:10237000F8BD0020F8BD00BF13280020BD150020C7
:102380001428002030B50F4C0A2522786378A2F17A
:102390003001303B05FB0132A3783C20A3F1300132
:1023A000E378303B05FB013343434FF4616000FBAE
:1023B000023322796079303A303805FB0200184444
:1023C00030BD00BFBD150020044B0A20DA791B7A0E
:1023D000303A303B00FB0230704700BFBD15002093
:1023E000F0B54248C388424EF25C242A1BD1F21851
:1023F0009178502917D1D178472914D111795329CF
:1024000011D1517956290ED140F2A234A342374955
:10241000C38069D8D2790533303A0A729AB2002360
:1024200009781C4619E0B3F5697F02D201339BB2EB
:10243000D9E7C38058E02C2D18D104F0F703072BFF
:1024400011D00B2C0FD0132C0DD00134E4B200238B
:10245000013292B2B2F57A7F43D0B55C2A2DEAD12F
:10246000C28001313DE00131C9B2EEE7271F0F2FD5
:10247000EED8DFE807F008131E2908131E290813F9
:102480001E2908131E29022BE2D81A4F03F1010E50
:1024900007EB01173B4483F83F501FE0022BD7D8CE
:1024A000144F03F1010E07EB01173B4483F843502F
:1024B00014E0022BCCD80F4F03F1010E07EB0117EC
:1024C0003B4483F8475009E0022BC1D8094F03F180
:1024D000010E07EB01173B4483F84B505FFA8EF374
:1024E000B6E701700120F0BD0020F0BD0C0800200F
:1024F00014280020BD150020F0B54248C388424E84
:10250000F25C242A1BD1F21891784C2917D1D1788A
:10251000472914D11179532911D1517956290ED156
:1025200040F2A234A3423749C38069D8D279053337
:10253000303A4A729AB2002349781C4619E0B3F542
:10254000697F02D201339BB2D9E7C38058E02C2DBA
:1025500018D104F0F703072B11D00B2C0FD0132C3C
:102560000DD00134E4B20023013292B2B2F57A7F89
:1025700043D0B55C2A2DEAD1C28001313DE0013162
:10258000C9B2EEE7271F0F2FEED8DFE807F00813D8
:102590001E2908131E2908131E2908131E29022BA1
:1025A000E2D81A4F03F1010E07EB01173B4483F801
:1025B0003F541FE0022BD7D8144F03F1010E07EB55
:1025C00001173B4483F8435414E0022BCCD80F4F3F
:1025D00003F1010E07EB01173B4483F8475409E070
:1025E000022BC1D8094F03F1010E07EB01173B4441
:1025F00083F84B545FFA8EF3B6E741700120F0BDCB
:102600000020F0BD0C08002014280020BD1500207B
:1026100010B5013082B20020134C531CA15C2A2952
:1026200007D09AB2B2F57A7F80EA0100F4D1002097
:1026300010BD9BB2E35C0232402B86BF373B1B01CF
:102640001B0192B28CBFD9B203F0F001A35C402B06
:102650008BBFA3F13702303B8B185B18DBB21B1A20
:102660005842584110BD00BF1428002038B5354BE2
:10267000002213F8011F95B2242908D1D9785A29CC
:1026800005D11979442902D15979412904D001325F
:10269000B2F5717FEDD151E040F2C1339D424DD88A
:1026A0002846FFF7B5FF00284BD0681D80B20022F6
:1026B000254B1B5C2C2B03D10132D2B2002437E016
:1026C000511E062934D8DFE801F0040B131B232B1D
:1026D0003B00082C2CD81D4D611C2B55CCB227E09B
:1026E000012C25D81949651C0C4484F835301EE0AE
:1026F000012C1DD81549651C0C4484F8323016E0B5
:10270000032C15D81149651C0C4484F82D300EE0BB
:10271000022C0DD80D49651C0C4484F8383006E0B5
:10272000012C05D80949651C0C4484F83C30ECB2F6
:10273000013080B2B0F57A7FBAD101E0002038BD17
:10274000012038BD1328002014280020BD150020CA
:102750002DE9F0477F4B1A78012A40F0F9807E4E30
:1027600000251D7033887D480133338004F014F94F
:102770007B4B7C4C1D80FFF78FFDFFF737FCFFF78D
:102780002BFDFFF773FFFFF7FDFD774B1860FFF799
:102790001BFE764BE58018602570FFF721FE237A3B
:1027A000EAB2013B9A426F4905F10105F5DB0025CC
:1027B000CD804D70FFF7A0FE637AEAB2013B9A42EA
:1027C00005F10105F6DB6A4B1A78023AD2B2012A0A
:1027D00000F2858042F21078664BDFF8CCA15D7D77
:1027E0006548A5F130019D7DDFF8C091303D0AFBC1
:1027F00005F500FB0155D97D604F303909FB0155C6
:10280000197ED87E303907FB0155597E3038303972
:1028100008FB01554FF47A7101FB005593F81CE059
:102820006420AEF1300E00FB0E5593F81DC04FF042
:102830000A0EACF1300C0EFB0C5C9D7F303D654404
:10284000DFF86CC1CCF80050DD7A93F80AC0303D57
:1028500009FB05F9ACF1300C0AFB0C991D7B303DEE
:1028600007FB059C5D7B303D08FB05C7DD7B303DEC
:1028700001FB05771D7C303D00FB05715D7C303D23
:102880000EFB0510997C6425303901443C480160F9
:10289000197D4E293B490CBF01200020087093F898
:1028A0002010452938490CBF00200120087093F8FA
:1028B0002510A1F1300093F82610303969434FF408
:1028C0007A7505FB001193F827000A25303805FBBF
:1028D000001193F82930303B0B442C490B602C48F5
:1028E0002C490023022B03D010F8017F5D1C47B94F
:1028F0000B600B68012B06D11E4B93F82230303B46
:1029000011E02B46EEE7022B09BF1A48002390F88E
:102910002330A3F1300101BF90F82230303B03EBAC
:10292000830301EB4303012AA37207D81A4B1A78D9
:1029300022B901221A703288184B1A800023184AD3
:10294000002199540133B3F57A7FF8D1154A136009
:10295000BDE8F087B01E002052270020B12A0008F1
:102960008E1100200C080020F0340020A81E00204A
:1029700080140020BD15002000E1F505A0860100AF
:1029800088110020C812002010130020D03400202D
:10299000DE15002094120020631F00207414002014
:1029A00014280020B41E00208096980040420F009A
:1029B000081E0020284B30B51A78002A4BD0002280
:1029C0001A7049F28702254C254923889BB293420D
:1029D000244B3AD949F21820228892B2824234D844
:1029E0001A78592A31D91A785C2A2ED81D23CB722D
:1029F0001D4A581E32F8105022F8135010F0FF03F1
:102A00001046F5D1228802801A4630F8134001336F
:102A1000DBB21E2B2244F8D1CB72B2FBF3F3CA60B7
:102A2000124A9BB21380124A002414700A790C488F
:102A30000132D2B20A710A791F2A0CD920220271FE
:102A40000C4A13800123437130BD094A01201070E4
:102A500000221A700A7130BD291F0020C42C0020EA
:102A60000C080020C01E0020CA12002020130020E5
:102A7000EF2700204400002038B504460D462046CC
:102A8000802104F0D6FB0028F9D020462946BDE875
:102A9000384004F0C6BB000001460148FFF7ECBF18
:102AA0000048004001460148FFF7E6BF00440040EF
:102AB00001460148FFF7E0BF003801400023064906
:102AC00000225A540133B3F57A7FF8D103490B60E1
:102AD000034B1A80704700BF14280020B41E00204A
:102AE0008E1100200023064A00211A440133642B72
:102AF0001174F8D1034A1360034B1980704700BF6B
:102B00000C080020B41E0020C02C00204FF461638C
:102B100070B5B0FBF3F403FB14033C251821B4FBA0
:102B2000F1F6B3FBF5F201FB164105FB1233BDE8EC
:102B30007040014804F0A8B8A8AC0008F7B5644894
:102B400003F02AFF002004F0A1FF624D002001469F
:102B500005F090F82A884FF47A73B2FBF3F103FB87
:102B600011225D4892B289B204F08EF800213C2017
:102B700005F080F8594B01241868FFF7C7FF0020C3
:102B8000024600940F213F2305F0D5F83F21009421
:102B90000B4600207F22524C05F0CDF80023236025
:102BA00020684F4E15280ED800EB4000400080B240
:102BB000012300933C213F23024605F0BCF8336813
:102BC00001333360ECE7002333602168444E05296C
:102BD0004FF001000AD8C9000F3189B20B460090AE
:102BE000032205F0A8F833680133EDE7306022686E
:102BF0003B4E7F2A16D83B498B5C9BB190B20A446E
:102C000012F8011C0127421CC1F13F01C3F13F032F
:102C10009BB2009789B292B205F08DF833683B44BD
:102C20003360E4E701237F2000930C213423024624
:102C300005F081F8002323602168294E04290FD86C
:102C400001EB810149000C3189B2012300937D2001
:102C50000B467E2205F06FF8336801333360EBE7F3
:102C6000214A1378052B0FD1002313701F4B204AE4
:102C7000934203D013F8012D5A70F8E71D4A2978C2
:102C80001268521A1A7001E0013313700123236095
:102C90002368134D632B18D8154E9AB2F11811F909
:102CA000011CF35602F113000126C1F12001143278
:102CB000C3F120039BB2009680B289B292B205F0B4
:102CC0003AF82B6833442B60E2E703B0F0BD00BF55
:102CD00005100008A41E00205EAD0008841400202A
:102CE000B41E0020241E0020A71E0020C82700209C
:102CF00065270020A011002038B5464803F04CFE9F
:102D0000002004F0C3FE6E20002104F0B3FF424B0C
:102D10004248197803F0B8FF0020014604F0AAFFEA
:102D20003F4803F0B1FF3F4B3F4C1868FFF7EEFE02
:102D30000A21002004F09EFF3C4803F0A5FF3C4B15
:102D40001868FFF7E3FE3B4B3B48196803F09CFF14
:102D50000020142104F08EFF384803F095FF002373
:102D600023602368304D012B09D8354A134493F86A
:102D70003500FEF747F92B6801332B60F1E72E2071
:102D8000FEF740F900232B602368274D012B08D85C
:102D90002B4A134493F83200FEF734F92B680133C1
:102DA000F1E72E20FEF72EF900232B6023681E4D3D
:102DB000032B08D8224A134493F82D00FEF722F97A
:102DC0002B680133F1E700201E2104F053FF1D4B57
:102DD0001D48196803F058FF0020282104F04AFF1D
:102DE0001A4B1B48196803F04FFF0020322104F0F2
:102DF00041FF184B184819789A7A03F045FF502084
:102E0000322104F037FF154B15481978BDE83840DA
:102E100003F03ABF05100008BE2C0020B7AC000834
:102E2000BBAC00080C130020B41E0020C1AC00088D
:102E3000BC1E0020A81E0020DFAA0008C7AC0008A6
:102E4000BD150020B82C0020CEAC0008F0340020C6
:102E5000DAAC00080C080020E6AC00088014002062
:102E6000F0AC000810B5002004F010FE204803F07C
:102E700093FD0020014604F0FDFE1E4803F004FF10
:102E80000021402004F0F6FE1B4B1C4C1868FFF795
:102E90003DFE1B4803F080FD0A21002004F0EAFEFD
:102EA000184803F0F1FE0A21202004F0E3FE6068D8
:102EB000FFF72CFE1B21002004F0DCFE124803F07B
:102EC000E3FE1B21202004F0D5FEA068FFF71EFEC4
:102ED0002C21002004F0CEFE0C4803F0D5FE20206B
:102EE0002C2104F0C7FEE068BDE81040FFF70EBEDD
:102EF00005100008F8AC0008B82C00200C2C0020AD
:102F00001110000801AD000804AD000807AD00086D
:102F10002DE9F347002004F0B9FDB14B01251A68F3
:102F20000A23B2FBF3F60020014603FB16260095A8
:102F30000E22072304F0A3FF2A46032300950F2047
:102F4000022104F0D9FF40F6AB53A64C22889A42E6
:102F500006D90220009501462A46032304F0CCFF3F
:102F600040F6696322889A4206D901220092052020
:102F70000221032304F0C0FF40F6C36322889A4273
:102F800006D90122009208200221032304F0B4FF95
:102F900040F6097322889A4206D9012200920B203A
:102FA0000221032304F0A8FF8F4FBB78012B40F0D0
:102FB000D3818E4803F0F0FC00200A2104F05AFE71
:102FC0008B4C022E0CBF8B488B4803F05DFE238B8D
:102FD0006BB31BB213F18C0F17DB36334FF00105C7
:102FE00000954FF018004FF015014FF055024FF0CB
:102FF000050308DA04F043FF228B18208C32009579
:10300000152192B2052304F077FFB4F918300B2193
:103010006333B4BF1220192004F02CFE774803F06C
:10302000BBFCB4F91810764803F02EFE09E0192015
:103030000B2104F01FFE714803F0AEFC714803F051
:1030400023FE94F921306A4D002B11DD50200B2115
:1030500004F010FE95F921106B4803F015FE712065
:10306000152104F007FE694895F8221003F00CFEC4
:10307000624803F091FC1920002104F0FBFD644B31
:10308000D3E9008954A3D3E900234046494607F019
:10309000E7FA88B100225F4B4046494607F06EF8D8
:1030A00007F02EFB0A23B0FBF3F102465A4803FB5C
:1030B000112203F0E9FD02E0584803F0E5FD584D08
:1030C0004720002104F0D6FDA868FFF71FFD554BEF
:1030D000A9465A8E9846002A3CD001256E200B2125
:1030E0000E220723009504F0CAFE032300957D20DD
:1030F0000D212A4604F000FF40F6AB53B8F832A089
:103100009A4527D90323009570200D212A4604F003
:10311000F3FE40F669639A451CD90323009573209A
:103120000D212A4604F0E8FE40F6C3639A4511D902
:103130000323009576200D212A4604F0DDFE40F69B
:1031400009739A4506D9009579200D212A46032353
:1031500004F0D2FE254803F01FFC00202A2104F0D1
:1031600089FD032E0CBF3048304803F08DFDA38C41
:10317000002B5FD01BB213F18C0F18DB36334FF0EE
:10318000010500954FF018004FF034014FF0550243
:103190004FF0050309DA04F072FE154B18209A8CE3
:1031A00034218C32009592B2052304F0A5FEB4F9C7
:1031B00024302A216333B4BF1220192004F05AFDB1
:1031C0000E4803F0E9FBB4F92410194803F05CFD44
:1031D0003AE000BFAFF3008000000000006AF84052
:1031E0004C270020A41E00204400002011100008DD
:1031F000342C00200AAD000804AD000805100008BA
:1032000072AB00080DAD000813AD000817AD000843
:10321000D8340020000024401CAD000823AD000875
:103220000C2C0020A41100202AAD000807AD0008D6
:103230002DAD000819202A2104F01CFD8C4803F054
:10324000ABFB8C4803F020FD94F92D308A4D002B08
:1032500011DD50202A2104F00DFD95F92D1087482D
:1032600003F012FD7120342104F004FD844895F828
:103270002E1003F009FD7E4803F08EFB19201F215C
:1032800004F0F8FC7F4BD3E9004577A3D3E9002392
:103290002046294607F0E4F988B100227A4B2046FF
:1032A000294606F06BFF07F02BFA0A23B0FBF3F177
:1032B0000246764803FB112203F0E6FC02E0744864
:1032C00003F0E2FC47201F2104F0D4FCD9F80C00E5
:1032D000FFF71CFCB8F84A30002B3DD001246E20CB
:1032E0002A210E220723009404F0C9FD0323009431
:1032F0007D202C21224604F0FFFD664BB3F84A5096
:1033000040F6AB539D4227D90323009470202C2113
:10331000224604F0F1FD40F669639D421CD9032367
:10332000009473202C21224604F0E6FD40F6C3638E
:103330009D4211D90323009476202C21224604F0CB
:10334000DBFD40F609739D4206D9009479202C21BB
:103350002246032304F0D0FDBB78022B40F0C48149
:103360004D4803F019FB00200A2104F083FC424C75
:10337000012E0CBF49484A4803F086FCA3896BB371
:103380001BB213F18C0F17DB36334FF0010500959C
:103390004FF018004FF015014FF055024FF00503A4
:1033A00008DA04F06CFDA28918208C3200951521F2
:1033B00092B2052304F0A0FDB4F90C300B21633365
:1033C000B4BF1220192004F055FC294803F0E4FA98
:1033D000B4F90C10334803F057FC09E019200B2115
:1033E00004F048FC224803F0D7FA224803F04CFCD2
:1033F00094F91530204D002B10DD50200B2104F0E6
:1034000039FC95F915101D4803F03EFC712015217B
:1034100004F030FC1A48A97D03F036FC144803F090
:10342000BBFA1920002104F025FC1F4BD3E90089C9
:103430000DA3D3E900234046494607F011F9A8B38C
:103440000022114B4046494606F098FE07F058F915
:103450000A23B0FBF3F102460C4803FB112203F0F0
:1034600013FC26E0AFF3008000000000006AF84083
:10347000051000080DAD0008342C002013AD000825
:1034800017AD000898110020000024401CAD000872
:1034900023AD0008A41100201110000834AD00086D
:1034A00001AD000872AB0008D8340020B24803F028
:1034B000EBFBB24D4720002104F0DCFB6868FFF70E
:1034C00025FBAF4BA9465A8B9846002A3CD00125D4
:1034D0006E200B210E220723009504F0D0FC03235D
:1034E00000957D200D212A4604F006FD40F6AB53E1
:1034F000B8F81AA09A4527D90323009570200D210A
:103500002A4604F0F9FC40F669639A451CD9032366
:10351000009573200D212A4604F0EEFC40F6C363AB
:103520009A4511D90323009576200D212A4604F0EF
:10353000E3FC40F609739A4506D9009579200D21E0
:103540002A46032304F0D8FC8E4803F025FA002015
:103550002A2104F08FFB032E0CBF8B488B4803F00D
:1035600093FBA38C73B31BB213F18C0F18DB3633B0
:103570004FF0010500954FF018004FF034014FF067
:1035800055024FF0050309DA04F079FC804B18204E
:103590009A8C34218C32009592B2052304F0ACFC55
:1035A000B4F924302A216333B4BF1220192004F067
:1035B00061FB784803F0F0F9B4F92410764803F081
:1035C00063FB09E019202A2104F054FB714803F041
:1035D000E3F9724803F058FB94F92D306C4D002B41
:1035E00011DD50202A2104F045FB95F92D106C487F
:1035F00003F04AFB7120342104F03CFB694895F844
:103600002E1003F041FB634803F0C6F919201F2177
:1036100004F030FB644BD3E9004555A3D3E9002304
:103620002046294607F01CF888B100225F4B20464F
:10363000294606F0A3FD07F063F80A23B0FBF3F177
:1036400002465B4803FB112203F01EFB02E04A48DE
:1036500003F01AFB47201F2104F00CFBD9F80C00E3
:10366000FFF754FAB8F84A30002B3DD001246E2001
:103670002A210E220723009404F001FC0323009466
:103680007D202C21224604F037FC3D4BB3F84A50F4
:1036900040F6AB539D4227D90323009470202C2180
:1036A000224604F029FC40F669639D421CD903239D
:1036B000009473202C21224604F01EFC40F6C363C4
:1036C0009D4211D90323009476202C21224604F038
:1036D00013FC40F609739D4206D9009479202C21F1
:1036E0002246032304F008FCBB78032B40F0C7817B
:1036F000244803F051F900200A2104F0BBFA244CBD
:10370000012E0CBF2B482C4803F0BEFAA389002BD6
:1037100056D01BB213F18C0F17DB36334FF0010577
:1037200000954FF018004FF015014FF055024FF083
:10373000050308DA04F0A3FBA28918208C32009557
:10374000152192B2052304F0D7FBB4F90C300B21FC
:103750006333B4BF1220192004F08CFA0D4803F033
:103760001BF9B4F90C10154803F08EFA32E000BFD3
:1037700000000000006AF84023AD00080C2C002077
:10378000A4110020111000082AAD000807AD0008A0
:10379000342C0020051000082DAD00080DAD0008E8
:1037A00013AD000817AD0008F834002000002440D5
:1037B0001CAD000834AD000801AD000872AB000874
:1037C00019200B2104F056FAB14803F0E5F8B1488E
:1037D00003F05AFA94F91530AF4D002B10DD50204C
:1037E0000B2104F047FA95F91510AC4803F04CFA98
:1037F0007120152104F03EFAA948A97D03F044FA8E
:10380000A34803F0C9F81920002104F033FAA54BAE
:10381000D3E900899CA3D3E900234046494606F03A
:103820001FFF88B10022A04B4046494606F0A6FC87
:1038300006F066FF0A23B0FBF3F102469B4803FB48
:10384000112203F021FA02E0994803F01DFA994D84
:1038500047200021984F04F00DFA6868FFF756F9E9
:103860007B8BA846002B3CD001256E200B210E221D
:103870000723009504F003FB032300957D200D2111
:103880002A4604F039FB40F6AB53B7F81A90994535
:1038900027D90323009570200D212A4604F02CFB24
:1038A00040F6696399451CD90323009573200D21C7
:1038B0002A4604F021FB40F6C363994511D903233E
:1038C000009576200D212A4604F016FB40F6097378
:1038D000994506D9009579200D212A46032304F045
:1038E0000BFB764803F058F80020262104F0C2F9BB
:1038F000022E0CBF7248734803F0C6F9238B73B3D2
:103900001BB213F18C0F18DB36334FF00105009515
:103910004FF018004FF034014FF055024FF00503FF
:1039200009DA04F0ACFA5C4B18201A8B34218C3283
:10393000009592B2052304F0DFFAB4F918302A2179
:103940006333B4BF1220192004F094F9504803F0F7
:1039500023F8B4F918105C4803F096F909E019202F
:103960002A2104F087F94A4803F016F8494803F081
:103970008BF994F92130484D002B11DD50202A217C
:1039800004F078F995F92110444803F07DF971208D
:10399000342104F06FF9424895F8221003F074F9CD
:1039A0003B4802F0F9FF19201F2104F063F9474B4F
:1039B000D3E9004534A3D3E900232046294606F085
:1039C0004FFE88B10022384B2046294606F0D6FB30
:1039D00006F096FE0A23B0FBF3F10246334803FBE0
:1039E000112203F051F902E0314803F04DF947206C
:1039F0001F2104F03FF9D8F80800FFF787F87B8E05
:103A0000002B3CD001246E202A210E220723009493
:103A100004F035FA032300947D202C21224604F083
:103A20006BFA254B5D8E40F6AB539D4227D903239D
:103A3000009470202C21224604F05EFA40F669635F
:103A40009D421CD90323009473202C21224604F0AC
:103A500053FA40F6C3639D4211D9032300947620A4
:103A60002C21224604F048FA40F609739D4206D9FB
:103A7000009479202C212246032304F03DFA02B061
:103A8000BDE8F087AFF3008000000000006AF84056
:103A9000051000080DAD0008342C002013AD0008FF
:103AA00017AD000898110020000024401CAD00084C
:103AB00023AD00080C2C0020A411002011100008D8
:103AC0000AAD000804AD00082DAD0008F834002050
:103AD0004FF4616310B5B0FBF3F41821B4FBF1F2BD
:103AE00003FB140301FB1241BDE810403C220248D5
:103AF000B3FBF2F203F0C8B8ADAC0008F0B5BD48B6
:103B000087B002F049FF0124002003F0BFFF6F20BF
:103B100000210E220723009404F0B1F9224603236A
:103B200000947E20022104F0E7F940F6AB53B24E38
:103B300032889A4206D9009471200221224603233A
:103B400004F0DAF940F6696332889A4206D9012214
:103B5000009274200221032304F0CEF940F6C363DF
:103B600032889A4206D9012200927720022103234B
:103B700004F0C2F940F6097332889A4206D901224C
:103B800000927A200221032304F0B6F901250020D7
:103B900001462A460623009504F0AEF903210A46A1
:103BA00006202B4604F0D8F90620032102222B46DA
:103BB00004F0D2F90B2000212A460623009504F0D8
:103BC0009BF90220014602460423009504F0B3F855
:103BD0008A4C0A20042300950221024604F0ABF827
:103BE000A37A33B100950F20062102222B4604F060
:103BF00083F9A37A022B07D9012300931320042110
:103C00000222032304F078F9A37A042B07D90123B5
:103C10000221009317200A46052304F06DF9A37AC8
:103C2000072B07D9012300931B2000210222072321
:103C300004F062F91F20002104F01CF80125A17A8C
:103C40006F4803F021F8322000212A46072300950F
:103C500004F052F93420022136220023009504F0AA
:103C60006AF83420032137220023009504F063F81A
:103C7000644F312002212F220023009504F05BF8CD
:103C800000230095312003212E2204F054F8B7F9C7
:103C90000430813306DB00953720062102222B46B3
:103CA00004F02AF9B7F904306E3307DB01230093DF
:103CB0003B2004210222032304F01EF9B7F904304B
:103CC0005A3307DB0123022100933F200A460523D4
:103CD00004F012F9B7F90430463307DB01230093EF
:103CE000432000210222072304F006F90021492085
:103CF00003F0C0FF444B454D1868FFF7E9FE002074
:103D00000A2103F0B7FFE878AB7829786A78009049
:103D10002879019068790290E8790390287A0490D4
:103D20003B4802F0B1FF70200A2103F0A3FF394B9A
:103D30001B889BB213B1384802F0A6FF70201421F3
:103D400003F098FF354B1B889BB213B1344802F047
:103D50009BFF1421002003F08DFF324802F094FFF6
:103D6000A17A274802F090FF637821782E48194401
:103D700002F08AFF00201E2103F07CFF32884FF4FE
:103D80007A73B2FBF3F103FB1122284889B292B295
:103D900002F07AFF60201E2103F06CFF24484FF4EC
:103DA0000051FDF70BF910B9224802F06DFF002019
:103DB000282103F05FFF204C204802F065FF00231C
:103DC000236023681E4E082B0BD83278023A012A52
:103DD0009ABF5B19987A2D20FDF714F923680133F7
:103DE000EEE73378023B012B2ED8297D154802F0EF
:103DF0004BFF2CE005100008A41E00200C0800203A
:103E0000C8AA000844000020B82C0020BD150020DE
:103E100037AD00082A1F00204FAD0008081300200E
:103E20007AAB000852AD0008A8AA000858AD0008F7
:103E30000010014069AD0008B41E00206FAD0008FD
:103E4000801400200AAB0008234802F01DFF002068
:103E5000322103F00FFF214802F016FF6B7D302B5B
:103E60001AD1012323602368092B0BD83278023A38
:103E7000012A9ABF5B19587D2D20FDF7C3F82368EE
:103E80000133EFE73378023B012B16D895F8201069
:103E9000134802F0F9FE13E0002323602368092B86
:103EA000F0D83278023A012A9ABF5B19587D2D204A
:103EB000FDF7A8F823680133EFE7074802F0E4FEB6
:103EC0007020322103F0D6FE0648032107B0BDE87A
:103ED000F04002F0D9BE00BF0FAB000874AD00087F
:103EE0000AAB000879AD000837B50A4D10234FF42E
:103EF00000548DF807302846032301A98DF80630B9
:103F0000ADF80440FDF70CF828462146FDF75CF8B3
:103F100003B030BD000C014037B50A4D04234FF407
:103F200000548DF807302846032301A98DF8063088
:103F3000ADF80440FCF7F4FF28462146FDF746F8AB
:103F400003B030BD000C014001480421FDF73CB82E
:103F5000000C014001480421FDF738B8000C014075
:103F600002484FF40061FDF72FB800BF0008014080
:103F700008B51D4B1A78002A35D000221A701B4B49
:103F80005B792BB9FFF7ECFF194B4FF4FA721A80EB
:103F9000184B194A1B6801331360184B184A1968EB
:103FA000116019683C23B1FBF3F203FB1213154AAD
:103FB0001360154A9279934212D002F10A018B42A2
:103FC0000ED002F114018B420AD002F11E018B4285
:103FD00006D002F128018B4202D03232934202D144
:103FE0000A4B01221A7008BD001F00200C08002097
:103FF000C22C0020F0340020BC1E0020B82C002071
:104000000C1300204C27002044000020D434002052
:1040100002484FF40061FCF7D9BF00BF000801401F
:1040200002484FF48051FCF7CFBF00BF00080140A9
:1040300002484FF48051FCF7C9BF00BF000801409F
:1040400001481021FCF7C2BF000C014001481021BB
:10405000FCF7BCBF0008014001481021FCF7B4BFC9
:104060000008014010B50446FFF7F0FF1148022197
:1040700004F0B6F80028F9D00E48214604F0ABF859
:104080000C48802104F0ACF80128F9D0094804F06C
:10409000A4F80848002104F09EF80648012104F025
:1040A0009FF80028F9D0FFF7D7FF024804F095F8F1
:1040B000C0B210BD0030014010B5294CA36F5B6940
:1040C0009847022809D0042845D1264B00221A809F
:1040D000A36FBDE810409B681847234A136801335B
:1040E0001360224B1A78012A06D100221A70204A46
:1040F00013680133136010BDA36F1E49DB681E48AF
:104100009847FFF72DFF1D4A4FF4FA7313801C4A9E
:10411000282013801B4B01221A70FFF7A3FF0446CF
:104120002920FFF79FFF000500EB04742A20FFF70A
:1041300099FF154B04EB003018604FF4805390FB4F
:10414000F3F005F0B5FF04A3D3E9002306F040F92E
:104150000E4BC3E9000110BD85EB51B81E850E4022
:104160000C0800202A1F0020F0270020D82700205C
:10417000003500204C00002088140020C22C0020B4
:104180000813002006130020F8270020E834002040
:1041900001481021FCF71ABF000C01400148102112
:1041A000FCF712BF000C014037B50A4D10234FF445
:1041B00000448DF807302846032301A98DF8063006
:1041C000ADF80440FCF7ACFE28462146FCF7FEFEA5
:1041D00003B030BD000C014037B50A4D04234FF445
:1041E00000448DF807302846032301A98DF80630D6
:1041F000ADF80440FCF794FE28462146FCF7E4FEA7
:1042000003B030BD000C014038B52F481121012208
:10421000072302F033FF2C48012102F026FF2A4831
:10422000022102F07DFF0028F9D0274802F068FF44
:10423000264C1121208001222348072302F01EFF73
:104240002148012102F011FF1F48022102F068FFFE
:104250000028F9D01C4802F053FF2080FFF7A4FF8C
:10426000194800210122072302F008FF1648012106
:1042700002F0FBFE1448022102F052FF0028F9D0A0
:10428000114802F03DFF124D2880FFF7A5FF41F2D3
:10429000E4232D8824886B430E4993FBF4F391FBB0
:1042A000F4F10D4A13600D4A116000220C4820F809
:1042B00012300C4820F812100132B2F57A7FF5D195
:1042C0000481458138BD00BF00240140FC27002047
:1042D000AC1E002050FB4A00A011002070140020EA
:1042E000FE2C0020641F00205948112170B50122C6
:1042F000072302F0C3FE5648012102F0B6FE5448DF
:10430000022102F00DFF0028F9D0514802F0F8FE1A
:10431000504C2080FFF748FF4D4800210122072321
:1043200002F0ACFE4A48012102F09FFE48480221FB
:1043300002F0F6FE0028F9D0454802F0E1FE464DB5
:104340002880FFF749FF41F2E4232A88218853435C
:1043500093FBF1F3414A1360414A92FBF1F1414A68
:1043600011600022404C1019B0F8CC57A0F8CE577D
:104370003E481518B5F8CC67023AA5F8CE673C4D13
:10438000AA42EFD12380002301801A46194634F84F
:1043900011502B4430F811500131B1F57A7F2A4485
:1043A000F5D13448344C03603448B3FBF1F3026078
:1043B000B2FBF1F2324923800A80212192B292FBB2
:1043C000F1F23049643A0A709BB2252293FBF2F372
:1043D0002D4A643B2D484FF400511370FCF7EEFD5D
:1043E00030B92B4B1A781AB901221A70FFF718FE50
:1043F00026484FF40051FCF7E1FD012806D1244B7B
:104400001A781AB100221A70FFF712FE214B224AC5
:104410001B681360214A11688B4217D04FF4167144
:104420001360B3FBF1F201FB12337BB92288192030
:10443000A2F6B83292FBF0F219491A480B78C2542E
:104440000133DBB21A0648BF7F230B7070BD00BF7B
:1044500000240140FC270020AC1E0020A0110020F9
:1044600050FB4A0070140020FE2C0020641F002026
:1044700032F8FFFFFC1D0020A41E0020C41E0020F7
:10448000541F00208C110020231400200010014034
:104490008D1100200C1E002084140020041E00201A
:1044A00034140020241E0020034B00221A601A68D6
:1044B0008242FCD3704700BFB81E002008B51B48DD
:1044C0004FF48071FCF77AFD48BB0A20FFF7ECFF40
:1044D00016484FF48071FCF771FD30BB144A154B40
:1044E000117899B901211170D868134ADA6028B996
:1044F00003F0D8FDBDE8084003F07CBA1A7C013215
:10450000D2B20F2A94BF1A74197408BD5A8A013A9C
:1045100092B25A824AB9BDE80840FFF7FDBC044B8D
:1045200000221A70034B64225A8208BD000C01401D
:10453000082C00204400002020BF020008B50C48D1
:104540004FF40041FCF73AFD68B90A20FFF7ACFFD1
:1045500007484FF40041FCF731FD38B9054B1A7894
:1045600022B9012201E0034B00221A7008BD00BFEE
:104570000008014035140020014B1868704700BF47
:10458000B81E00202DE9F04F9D4D85B002274FF059
:1045900010084FF4805B284603A9ADF80CB08DF8E5
:1045A0000E708DF80F80FCF7BBFC28465946FCF7CF
:1045B0000DFD4FF40063284603A9ADF80C300093BD
:1045C0008DF80E708DF80F80FCF7AAFC009B8D4CC7
:1045D0001946284601934FF04809FCF7F7FC4FF4C1
:1045E0000052204603A9ADF80C2000928DF80E7001
:1045F0008DF80F90FCF794FC204603A9ADF80CB0A1
:104600008DF80E708DF80F90FCF78AFC4FF4004186
:10461000ADF80C10284603A98DF80E708DF80F9098
:10462000FCF77EFC4FF48071ADF80C10204603A916
:104630008DF80E708DF80F90FCF772FC00210326A8
:104640008DF80F10284603A98DF80E70ADF80C6098
:10465000FCF766FC4FF440414FF0040AADF80C1033
:10466000204603A98DF80FA08DF80E60FCF758FCCA
:10467000009A204603A9ADF80C208DF80FA08DF804
:104680000E60FCF74DFC009A20461146FCF79EFC9C
:10469000204603A98DF80E70ADF80C808DF80F80C0
:1046A000FCF73EFC20464146FCF790FC204603A95F
:1046B0008DF80E70ADF80CA08DF80F80FCF730FC73
:1046C00020465146FCF782FC2822204603A98DF89B
:1046D0000F200092ADF80CB08DF80E70FCF720FCA6
:1046E00020465946FCF772FC4FF0010B204603A907
:1046F000ADF80CB08DF80F808DF80E60FCF710FC53
:1047000020465946FCF762FCA0214FF0180BADF88B
:104710000C10284603A98DF80FB08DF80E60FCF739
:10472000FFFB4021ADF80C10204603A98DF80F9037
:104730008DF80E60FCF7F4FB284603A9ADF80C8059
:104740008DF80F808DF80E60FCF7EAFB2846414695
:10475000FCF73AFC009A2021ADF80C10204603A982
:104760008DF80F208DF80E60FCF7DAFB009A2046DA
:1047700003A98DF80F20ADF80C708DF80E604FF482
:104780008067FCF7CDFB284603A9ADF80C708DF8C7
:104790000F90FCF7C5FB4FF40072284603A9ADF853
:1047A0000C208DF80E608DF80FB0FCF7B9FB0822D5
:1047B000284603A9ADF80C208DF80F90FCF7B0FB4C
:1047C000284603A9ADF80CA08DF80E608DF80FB047
:1047D000FCF7A6FB019B204603A9ADF80C308DF831
:1047E0000F90FCF79DFB204603A9ADF80C708DF8E7
:1047F0000E608DF80FB0FCF793FB05B0BDE8F08FAD
:1048000000080140000C014010B502F053FA4FF4CB
:10481000803002F06FFA02F065FB1D4B0128044660
:1048200018700ED01B48012102F024FB45F63D20F4
:10483000012102F013FBBDE810400120014602F007
:1048400001BB102002F024FD022002F017FD002021
:1048500002F08EFA002002F09FFA4FF4806002F01E
:1048600091FA4FF480304FF4E01102F05FFA2046E5
:1048700002F066FA392002F021FB0028FAD002206B
:1048800002F064FA02F06CFA0828FBD1CAE700BF14
:10489000901100200700061010B50F4C8CB0204678
:1048A00002F0EEFD102203924FF6FF720B4B0492C2
:1048B00080220193069200234FF44052204601A922
:1048C000029305930793089309930A920B9302F0BE
:1048D0004FFE0CB010BD00BF6C00024010540040F1
:1048E00030B54FF4004087B002F060FA0125012195
:1048F0004FF4007002F0B2FA00244FF4602328460F
:10490000039301948DF808408DF8094004948DF8C4
:10491000145002F0F9FB2A4607231348214602F0FF
:10492000ADFB114801A902F061FB0F48294602F0D6
:1049300081FB0D4802F087FB0B4802F089FB002841
:10494000FAD1094802F088FB074802F08AFB0028E8
:10495000FAD10548012102F06DFB0348012102F064
:1049600084FB07B030BD00BF0024014010B5104CDF
:1049700086B0204603F0C6FB01A803F014FC4FF4F8
:104980008273ADF806300023ADF808304FF40073A1
:10499000ADF80E302046382301A9ADF8103003F0F1
:1049A000E3FB2046012103F00AFC06B010BD00BF66
:1049B000003001401FB50D4C4FF4E133009300234C
:1049C000ADF80430ADF80630ADF80830ADF80C3075
:1049D00020460C236946ADF80A3002F0A7FB2046BA
:1049E000012102F0F9FB04B010BD00BF0038014006
:1049F0001FB50D4C4FF4165300930023ADF804304F
:104A0000ADF80630ADF80830ADF80C3020460C2378
:104A10006946ADF80A3002F089FB2046012102F018
:104A2000DBFB04B010BD00BF004400401FB50D4CBF
:104A30004FF4E13300930023ADF80430ADF80630B5
:104A4000ADF80830ADF80C3020460C236946ADF8BF
:104A50000A3002F06BFB2046012102F0BDFB04B0DE
:104A600010BD00BF004400401FB50D4C4FF416535D
:104A700000930023ADF80430ADF80630ADF80830EF
:104A8000ADF80C3020460C236946ADF80A3002F030
:104A90004DFB2046012102F09FFB04B010BD00BF7A
:104AA000004800401FB50D4C4FF4E1330093002344
:104AB000ADF80430ADF80630ADF80830ADF80C3084
:104AC00020460C236946ADF80A3002F02FFB204641
:104AD000012102F081FB04B010BD00BF004800407E
:104AE00073B500214FF0006002F042FF3F4B3022CF
:104AF00083F8232001240625252301A88DF80430FE
:104B00008DF805508DF806508DF8074002F0FAFE3A
:104B100026238DF8043001A805238DF805308DF883
:104B200006308DF8074002F0EDFE27238DF80430A3
:104B300004230DEB03008DF805308DF806308DF859
:104B4000074002F0DFFE28238DF8043001A800237F
:104B50008DF805308DF806308DF8074002F0D2FE52
:104B600019238DF8043001A8022303268DF805309F
:104B70008DF8063002F0C6FE1C2301A88DF8043023
:104B80008DF805608DF8066002F0BCFE1D2301A8BB
:104B90008DF804308DF805608DF8066002F0B2FEE5
:104BA0001E2301A88DF804308DF805408DF80640CD
:104BB00002F0A8FE1F2301A88DF804308DF80550DF
:104BC0008DF806508DF8074002F09CFE20238DF8EA
:104BD000043001A807238DF805308DF806308DF8D4
:104BE000074002F08FFE02B070BD00BF00ED00E094
:104BF0001FB501A8FBF770FB0B23ADF804304FF68F
:104C0000FF730A4CADF808302046002301A9ADF827
:104C10000630FBF717FB01210A462046FBF771FB24
:104C2000034B4FF000721A6004B010BD002C01401D
:104C300000E100E01FB501A8FBF74EFB48F69F43DB
:104C4000ADF804303B234FF08044ADF8083001A9A3
:104C500000234FF08040ADF806308DF80C30ADF8F1
:104C60000A30FBF7EFFA238820469BB243F0080393
:104C700023800121FBF759FB01210A462046FBF75F
:104C800040FB034B4FF080521A6004B010BD00BFD0
:104C900000E100E01FB501A8FBF71EFB48F69F43AB
:104CA000104CADF804301323ADF808302046002333
:104CB00001A9ADF80630FBF7C5FA238820469BB260
:104CC00043F0080323800121FBF72FFB01210A4653
:104CD0002046FBF716FB044B4FF000521A6004B05D
:104CE00010BD00BF0004004000E100E01FB501A8B6
:104CF000FBF7F2FA0B23ADF804304FF6FF730C4CC0
:104D0000ADF808302046002301A9ADF80630FBF7C6
:104D100099FA01210A462046FBF7F3FA20460121C1
:104D2000FBF7E3FA034B4FF080421A6004B010BD6A
:104D30000008004000E100E007B50C210120FCF76D
:104D40004CF94FF48053009300238DF8043008236E
:104D50008DF80530684601238DF8063002F0F6F82C
:104D600003B05DF804FB0000F7B5FFF74DFDB54B50
:104D7000B54AF0215A60B54A0024072682F823106C
:104D80009C601E60FFF7FEFBFFF7AEF8FFF712FE18
:104D9000FFF72EFEFFF768FEFFF72AFFFFF74AFF37
:104DA000FFF778FFFFF7A2FFFFF7E0FDFFF798FEA0
:104DB000FFF796FDFFF7C0FFFFF76EFD6420FFF7DA
:104DC00073FB02F06FFEA24840F22551012202F06F
:104DD0000FFAA04840F22551012202F009FA0122FF
:104DE00040F225519C4802F003FA9C4801F0D4FDA2
:104DF0009B4801F049FF9B4801F046FF9A4801F0AB
:104E0000CBFD9A4D204602F041FE0420352102F0F0
:104E100031FFA978964801F037FF3F20352102F095
:104E200029FF01211822934801F02EFF02F0AAFD6C
:104E3000FFF7EAF9904801F0AFFD31468F4E0320AD
:104E400002F018FF346037688D4C002F5ED1FFF7F9
:104E50004BFAFFF7EDF83946202002F00BFF2288CD
:104E60004FF47A73B2FBF3F103FB11230A229BB2D6
:104E7000B3FBF2F289B20127824801F005FF20203E
:104E800015213B221923009702F0F9FF022211237A
:104E900000975C20192103F02FF840F6AB532288CD
:104EA0009A4206D90097232018210B22132303F0DE
:104EB00023F840F6696322889A4207D901230093B8
:104EC000312018210B22132303F016F840F6C36398
:104ED00022889A4207D9012300933F2018210B22F0
:104EE000132303F009F840F6097322889A4207D980
:104EF000012300934D2018210B22132302F0FCFF05
:104F000002F040FD3368013333609CE74FF4FA60F0
:104F1000FFF7CAFA40F61B4322889A422CD8FFF7C3
:104F200077F8FFF77DF8002002F0B0FD042005219E
:104F300002F0A0FE01225449544802F0EBFE3A2050
:104F40001B2102F097FE01225149524802F0E2FE75
:104F5000454801F021FD0420352102F08BFE218817
:104F60004D4801F091FE02F00DFD4FF47A60FFF71D
:104F70009BFAFEF7D1FFFEE7FEF7CEFF0A20FFF710
:104F800093FAFEF7B1FFFEF7EBFF44484FF4807150
:104F9000FCF714F818B9424B012283F87C2000205A
:104FA00002F074FD0020014602F064FE3D4901223A
:104FB0003D4802F0AFFE02F0E5FC012239493B48D2
:104FC00002F0A8FE02F0DEFCFEF7BEFF234801F06F
:104FD000E3FC374801F058FE00200A2102F04AFEA7
:104FE00030490122334802F095FE02F0CBFC4FF429
:104FF0004870FFF759FAFDF761FD2F4801F0CCFC2E
:105000002E4801F04FFE154801F0C6FC2C4801F077
:105010003BFE2C4CC820FFF747FA0023236023688F
:10502000284F132B284E51D8F15C00294ED00D2962
:105030004CD00A294AD00648FDF71EFD3B680133D3
:105040003B60ECE710E000E03E19010000ED00E0FD
:10505000003801400044004000480040B12A0008E8
:105060007DAD00088EAD000805100008440000204A
:1050700079AD0008A1AD00081110000894120020BD
:10508000A41E0020ACAD0008AC040020B7AD0008A1
:10509000A40400206DAD0008C3AD0008000C014061
:1050A0000C080020B4040020CAAD0008EEAD0008D2
:1050B000D9AD0008F1AD0008992A000800AE00083B
:1050C0000EAE0008B41E00201428002032789A4B3F
:1050D000242A2CD15A78502A29D19A784D2A26D1BF
:1050E000DA78542A23D11A794B2A20D15A79302AD6
:1050F0001DD19A79302A1AD1DA79312A17D11A7A40
:105100002C2A14D15B7A302B11D1B27A8A4B2C2AFB
:105110000DD1DA7A332A0AD11A7B2A2A07D15A7B8F
:10512000332A04D19B7B302B01D1844800E0844892
:1051300001F0AAFD834801F0A7FD834801F02CFC93
:10514000824801F0AFFD6420FFF7AEF9804801F01E
:1051500023FC804801F098FDFFF7A4FCFDF7AEFCAE
:10516000794801F019FC7C4801F09CFDC820FFF74C
:105170009BF9774801F010FC002323602368774FE8
:10518000132B0CD8F15C51B10D2908D00A2906D097
:105190007348FDF771FC3B6801333B60EEE7327802
:1051A000654B242A2CD15A78502A29D19A784D2A35
:1051B00026D1DA78542A23D11A794B2A20D15A7968
:1051C000302A1DD19A79302A1AD1DA79312A17D1A9
:1051D0001A7A2C2A14D15B7A302B11D1B27A564B21
:1051E0002C2A0DD1DA7A332A0AD11A7B2A2A07D13E
:1051F0005A7B332A04D19B7B302B01D14F4800E0EE
:105200004F4801F041FDFDF759FC564801F03CFDC7
:105210004D4801F0C1FB544801F044FD3220FFF736
:1052200043F9524801F03EFD4620FFF73DF9504852
:1052300001F038FD4620FFF737F9454801F0ACFB97
:105240004C4801F02FFD01224B494C4802F062FD11
:1052500002F098FB4FF4FA70FFF726F93C4801F092
:105260009BFB474801F010FD0020142102F002FDD5
:1052700041490122434802F04DFD02F083FBFEF755
:1052800087FF3220FFF710F9FEF788FF4FF4FA701E
:10529000FFF70AF9FDF726FC1420FFF705F93A4855
:1052A00001F07AFB394801F0EFFC0120FFF7FCF830
:1052B0000D20FDF7F7FB0A20FDF7F4FBC820FFF7F0
:1052C000F3F8002323602368244F632B304E0AD861
:1052D00033441A7C3AB1197C2148FDF7CDFB3B6879
:1052E00001333B60EFE70D20FDF7E2FB0A20FDF7FD
:1052F000DFFB1420FFF7D8F8FFF798FBFDF7F2FB70
:105300001420FFF7D1F8A978224801F0BDFC6420F1
:10531000FFF7CAF8002323602368104F632B3BD8A4
:1053200033441A7CC2B3197C0D48FDF7A5FB3B68DA
:1053300001333B60F0E700BF1428002027AE0008CF
:105340002DAE000833AE0008992A000845AE0008CB
:10535000B12A00085AAE000800AE0008B41E0020B2
:105360000038014072AE000887AE0008A2AE000807
:10537000B4AE0008E8AE0008B4040020EDAE0008AA
:10538000F1AE000804AF0008A52A000813AF00081A
:105390000C0800201CAF000801223A493A4802F0EC
:1053A000B9FC02F0EFFA394801F0F6FA384801F09A
:1053B00079FC364801F0F0FA364801F065FC00202F
:1053C0001E2102F057FC01222E49334802F0A2FCB4
:1053D00002F0D8FA01F09EFD0368B067984780207C
:1053E00002F002FA2D4802F007F995F9140002F0D4
:1053F00027F9082002F0B6F90421262001F04EFA20
:1054000000210C2001F04AFA6420FFF74DF81F48F4
:1054100001F0C2FA224801F045FC1A4901221A485B
:1054200002F078FC02F0AEFA4FF4FA70FFF73CF8A5
:10543000164801F0B1FA00234FF6FF71194A22F81D
:10544000131001330A2BF7D14FF4C8702360FFF714
:105450002BF80024FDF732FB134B20461C7002F0A2
:1054600015FB01230093204621467F22402302F0B2
:1054700006FD02F0BFFA0D4BEB6003B0BDE8F04053
:10548000FEF7C6BDB4040020EDAE0008B12A000846
:105490002EAF000843AF000855AF00088050DE195A
:1054A000E8AE0008101E0020B01E002020BF020041
:1054B0002DE980488BB0FFF757FCD14B9B6F9B6861
:1054C0009847FDF777FAFEF753FDFDF741F9CD4B0D
:1054D000DFF85C835D6AB5FBF8F4204604F0D8FD84
:1054E000064608FB14500F4604F0D2FDC0A3D3E9D2
:1054F000002304F06DFF0022C34B04F069FF024655
:105500000B463046394604F087FCBBA3D3E90023A1
:1055100004F034FE0022BD4B04F05AFF06460F464D
:10552000BB4BC3E90067B74BD3F83C90B9FBF8FA23
:10553000504604F0ADFD044608FB1A900D4604F0F9
:10554000A7FDABA3D3E9002304F042FF0022AE4B3A
:1055500004F03EFF02460B462046294604F05CFC60
:10556000A5A3D3E9002304F009FE0022A74B04F011
:105570002FFFA84BCDE90201C3E90001A14BD3F8ED
:1055800054B0BBFBF8FA504604F082FD044608FB19
:105590001AB00D4604F07CFD95A3D3E9002304F076
:1055A00017FF0022984B04F013FF02460B462046DB
:1055B000294604F031FC90A3D3E9002304F0DEFD7A
:1055C0000022924B04F004FF934BC3E900018D4B82
:1055D000D3F86CB0BBFBF8FA504604F059FD044612
:1055E00008FB1AB00D4604F053FD81A3D3E9002354
:1055F00004F0EEFE0022844B04F0EAFE02460B4665
:105600002046294604F008FC7BA3D3E9002304F0DC
:10561000B5FD00227D4B04F0DBFE804BC3E90001A9
:10562000784BD3F820B0BBFBF8FA504604F030FDBD
:10563000044608FB1AB00D4604F02AFD6CA3D3E91A
:10564000002304F0C5FE00226F4B04F0C1FE0246A9
:105650000B462046294604F0DFFB67A3D3E900236D
:1056600004F08CFD0022694B04F0B2FE6C4BCDE9D6
:105670000401C3E90001634BD3F838B0BBFBF8FA6F
:10568000504604F005FD044608FB1AB00D4604F030
:10569000FFFC57A3D3E9002304F09AFE00225A4BE3
:1056A00004F096FE02460B462046294604F0B4FB61
:1056B00051A3D3E9002304F061FD0022534B04F011
:1056C00087FE584BCDE90601C3E900014D4BD3F8E5
:1056D00050B0BBFBF8FA504604F0DAFC044608FB75
:1056E0001AB00D4604F0D4FC41A3D3E9002304F022
:1056F0006FFE0022444B04F06BFE02460B46204630
:10570000294604F089FB3CA3D3E9002304F036FDCD
:1057100000223E4B04F05CFE434BC3E90001394BD1
:10572000D3F868B0BBFBF8FA504604F0B1FC04466D
:1057300008FB1AB00D4604F0ABFC2DA3D3E90023FF
:1057400004F046FE0022304B04F042FE02460B46B7
:105750002046294604F060FB27A3D3E9002304F088
:105760000DFD0022294B04F033FE304BC3E900014C
:105770003046394602F056FE04460D46DDE9020188
:1057800002F050FECDE908013046394602F0B2FD84
:1057900082468B46DDE9020102F0ACFDDDE906231D
:1057A000CDE90201DDE9040104F034FB02F0A2FDC1
:1057B000DDE9082306460F462046294604F0DEFCB4
:1057C000DDE9022304460D465046594604F0D6FC56
:1057D00032463B4604F0D2FC02460B4620462946A0
:1057E00004F01AFB02F068FE24E000BFAFF3008073
:1057F000000000000088C340182D4454FB210940DC
:105800000C080020A411002000004E4000806640DB
:1058100088150020E027002018130020002C00200D
:10582000402700202814002078140020582700204A
:1058300040420F00C2A3D3E9002304F09FFCC64BF3
:10584000C3E90001C54BD3E900673046394602F091
:10585000E9FDC34BCDE90201D3E9004520462946C5
:1058600002F0E0FDCDE904013046394602F042FD88
:1058700082468B462046294602F03CFDB94BCDE9D5
:105880000601D3E90001B84BD3E9002304F0C2FAC2
:1058900002F030FDDDE9042306460F46DDE9020192
:1058A00004F06CFCDDE9062304460D4650465946DB
:1058B00004F064FC32463B4604F060FC02460B46B2
:1058C0002046294604F0A8FA02F0F6FD9CA3D3E98D
:1058D000002304F053FCA54BC3E90001A44BD3E91A
:1058E00000673046394602F09DFD9D4BCDE902012F
:1058F000D3E900452046294602F094FDCDE9040194
:105900003046394602F0F6FC82468B462046294650
:1059100002F0F0FC974BCDE90601D3E90001924B70
:10592000D3E9002304F076FA02F0E4FCDDE9042375
:1059300006460F46DDE9020104F020FCDDE90623FE
:1059400004460D465046594604F018FC32463B4684
:1059500004F014FC02460B462046294604F05CFA8B
:1059600002F0AAFD76A3D3E9002304F007FC824BE2
:10597000C3E90001814B1F68B7FBF8F6304604F01D
:1059800087FB044608FB16700D4604F081FB6EA3EE
:10599000D3E9002304F01CFD0022794B04F018FD2C
:1059A00002460B462046294604F036FA68A3D3E99E
:1059B000002304F0E3FB0022724B04F009FDDFF842
:1059C000CCC18246DCF800708B46B7FBF8F6644B1E
:1059D0003046C3E900ABCDF818C004F059FB0446CB
:1059E00008FB16700D4604F053FB57A3D3E90023C0
:1059F00004F0EEFC0022624B04F0EAFC02460B4687
:105A00002046294604F008FA51A3D3E9002304F004
:105A1000B5FB00225B4B04F0DBFC06460F46524B05
:105A2000C3E90067524BD3E900894046494602F07A
:105A3000F9FC04460D465046594602F0F3FCCDE908
:105A400002014046494602F055FCCDE904015046AA
:105A5000594602F04FFC474B324680468946D3E90F
:105A600000013B4604F0D6F902F044FCDDE90223D4
:105A700006460F462046294604F080FB424604466F
:105A80000D46DDE904014B4604F078FB32463B4607
:105A900004F074FB02460B462046294604F0BCF98C
:105AA00002F00AFD26A3D3E9002304F067FB364B7E
:105AB000C3E90001294BD3E900894046494602F079
:105AC000B1FC274B0446D3E900670D463046394602
:105AD00002F0A8FCCDE902014046494602F00AFC6A
